:020000040000FA
:060000000A128A1110280B
:10000800FE00030EF2000A08F300831203137F08B0
:10001800F4000A128A15022C0A128A1113280A12ED
:100028008A15CB220A128A11E1000A128A15CC22FB
:100038000A128A11E200D401D501D601D701D801EC
:10004800D901DA01DB01DC01DD01DE01DF01E001BC
:10005800F501F601F701F80183010A128A11C62A8F
:100068003428FF0000308A007F0882073A280A12E5
:100078008A15612BFE3083120313A000200888051F
:100088008814081588150030DC000030DB000030CB
:10009800DA00A630D9005C085B045A045904031D31
:1000A8005628572858287C280130A0000030A10085
:1000B8000030A2000030A3002008D9022108031C48
:1000C800210F67286828DA022208031C220F6D28EE
:1000D8006E28DB022308031C230F73287428DC0214
:1000E8005C085B045A045904031D7B287C285828A3
:1000F80006187F2880288C28061C832884288028B6
:10010800013084000A128A110A270A128A11C52AA4
:1001180086188F2890289C28861C93289428902835
:10012800023084000A128A110A270A128A11C52A83
:1001380006199F28A028AC28061DA328A428A028B3
:10014800033084000A128A110A270A128A11C52A62
:100158000030DC000030DB000030DA00A630D900C7
:100168005C085B045A045904031DBB28BC28BD283D
:10017800E1280130A0000030A1000030A2000030CA
:10018800A3002008D9022108031C210FCC28CD2860
:10019800DA022208031C220FD228D328DB02230804
:1001A800031C230FD828D928DC025C085B045A04F6
:1001B8005904031DE028E128BD280814FD30A000DB
:1001C80020088805081588150030DC000030DB00A1
:1001D8000030DA00A630D9005C085B045A045904E0
:1001E800031DF728F828F9281D290130A000003040
:1001F800A1000030A2000030A3002008D902210885
:10020800031C210F08290929DA022208031C220FDE
:100218000E290F29DB022308031C230F1429152993
:10022800DC025C085B045A045904031D1C291D29BF
:10023800F9280618202921292D29061C24292529D1
:100248002129043084000A128A110A270A128A1105
:10025800C52A8618302931293D29861C3429352993
:100268003129053084000A128A110A270A128A11D4
:10027800C52A0619402941294D29061D4429452921
:100288004129063084000A128A110A270A128A11A3
:10029800C52A0030DC000030DB000030DA00A63070
:1002A800D9005C085B045A045904031D5C295D29C4
:1002B8005E2982290130A0000030A1000030A20090
:1002C8000030A3002008D9022108031C210F6D2942
:1002D8006E29DA022208031C220F73297429DB0213
:1002E8002308031C230F79297A29DC025C085B04A4
:1002F8005A045904031D812982295E290814881487
:10030800FB30A0002008880588150030DC0000308C
:10031800DB000030DA00A630D9005C085B045A0420
:100328005904031D982999299A29BE290130A0004A
:100338000030A1000030A2000030A3002008D9023C
:100348002108031C210FA929AA29DA022208031C63
:10035800220FAF29B029DB022308031C230FB5297C
:10036800B629DC025C085B045A045904031DBD2944
:10037800BE299A290618C129C229CE29061CC529D1
:10038800C629C229073084000A128A110A270A12CC
:100398008A11C52A8618D129D229DE29861CD52991
:1003A800D629D229083084000A128A110A270A128B
:1003B8008A11C52A0619E129E229EE29061DE5292F
:1003C800E629E229093084000A128A110A270A124A
:1003D8008A11C52A0030DC000030DB000030DA006A
:1003E800A630D9005C085B045A045904031DFD2992
:1003F800FE29FF29232A0130A0000030A100003087
:10040800A2000030A3002008D9022108031C210FF4
:100418000E2A0F2ADA022208031C220F142A152A90
:10042800DB022308031C230F1A2A1B2ADC025C08A0
:100438005B045A045904031D222A232AFF2908149D
:1004480088140815F730A000200888050030DC0063
:100458000030DB000030DA00A630D9005C085B040D
:100468005A045904031D392A3A2A3B2A5F2A0130C3
:10047800A0000030A1000030A2000030A300200836
:10048800D9022108031C210F4A2A4B2ADA02220822
:10049800031C220F502A512ADB022308031C230FB6
:1004A800562A572ADC025C085B045A045904031DC7
:1004B8005E2A5F2A3B2A0618622A632A6F2A061CCC
:1004C800662A672A632A0A3084000A128A110A27D0
:1004D8000A128A11C52A8618722A732A7F2A861C4C
:1004E800762A772A732A0B3084000A128A110A277F
:1004F8000A128A11C52A0619822A832A8F2A061DFA
:10050800862A872A832A0C3084000A128A110A272D
:100518000A128A11C52A0030DC000030DB000030E6
:10052800DA00A630D9005C085B045A045904031D9C
:100538009E2A9F2AA02AC42A0130A0000030A100C8
:100548000030A2000030A3002008D9022108031CB3
:10055800210FAF2AB02ADA022208031C220FB52A7B
:10056800B62ADB022308031C230FBB2ABC2ADC02A1
:100578005C085B045A045904031DC32AC42AA02A30
:100588000A3008000630831603139F000A128A15E2
:10059800BD250A128A110A128A1502230A128A1123
:1005A800003A0319D82AD92ACF2A0A128A11FB2716
:1005B8000A128A11033083120313D0005008AA00CC
:1005C800BB30D1005108AB0000300A128A1546230F
:1005D8000A128A1183120313AA014E30D000500860
:1005E800AB0001300A128A1546230A128A1100301C
:1005F80083120313DC000530DB001630DA001530F7
:10060800D9005C085B045A045904031D0C2B0D2BFC
:100618000E2B322B0130D0000030D1000030D20038
:100628000030D3005008D9025108031C510F1D2B6C
:100638001E2BDA025208031C520F232B242BDB0239
:100648005308031C530F292B2A2BDC025C085B047C
:100658005A045904031D312B322B0E2B0A128A110E
:100668001D240A128A110A128A15B3240A128A1141
:10067800003A0319402B412BCF2A0A128A157624F7
:100688000A128A11003A03194A2B4B2BCF2A0A1255
:100698008A11C9260A128A110A128A15CD220A124B
:1006A8008A110A128A151E230A128A11EC2B0A12C1
:1006B8008A1502230A128A11003A031D642B652B3E
:1006C800C52B0A128A1566270A128A118312031388
:1006D8005D085E04031D712B722BEC2B6008031D53
:1006E800762B772BEC2B0A128A15D1220A128A1143
:1006F8000A128A1566270A128A110A128A15DE2238
:100708000A128A1183120313AA012630D000500856
:10071800AB0001300A128A1546230A128A110A12FE
:100728008A1510230A128A11003A03199C2B9D2B53
:10073800A22B83120313DF01DF0AB62B0A128A15D4
:1007480002230A128A11003A0319AB2BAC2B932B04
:100758000A128A111D240A128A110A128A151E23E6
:100768000A128A11831203135F080319BC2BBD2BCD
:10077800BF2BDF01F62B0A128A11C9260A128A1129
:10078800EC2B0A128A15D1220A128A110A128A152A
:10079800DE220A128A1183120313AA017130D000D3
:1007A8005008AB0001300A128A1546230A128A1132
:1007B8000A128A1502230A128A11003A0319E52B34
:1007C800E62BDC2B0A128A151E230A128A11BF2B6C
:1007D8000A128A1510230A128A11003A0319F52BF6
:1007E800F62B5B2B0A128A15D1220A128A110A12D9
:1007F8008A15DE220A128A110A128A15D7220A12CB
:100808008A110A128A153A240A128A110A128A15BA
:10081800F0240A128A110A128A15EC220A128A1185
:100828000A128A15E5220A128A11CF2A0A128A1197
:100838001028493084000530FF0083138001840AA2
:10084800FF0B212C83120313CE010A128A153023C1
:100858000A128A110A128A15E5220A128A118312CB
:100868000313A50100300A128A1587230A128A1178
:10087800C73083120313A5008030A6000A128A1518
:10088800D5230A128A1183120313A50101300A1213
:100898008A1587230A128A113C3083120313A50094
:1008A8008030A6000A128A15D5230A128A118312EB
:1008B8000313A50100300A128A1587230A128A1128
:1008C8000A128A113E200A128A1183120313C700E2
:1008D8004708CF002A304F060319732C742C9B2C21
:1008E80023304F060319792C7A2C9B2C0A304F069B
:1008F80003197F2C802C9B2C4F08C700C801470880
:10090800B4004808B5000A128A11DC270A128A11B5
:10091800831203134F08C7004E08493E8400470856
:10092800831380000130C7004708CE07642C2A30A3
:100938004F06031DA02CA12CA22CC82C23304F0637
:10094800031DA72CA82CC72CA50100300A128A1554
:1009580087230A128A11C73083120313A500803037
:10096800A6000A128A15D5230A128A1183120313C4
:10097800A50100300A128A1587230A128A118312E8
:100988000313CE01642C642CCE01FA2C4E08031DEF
:10099800CE2CCF2CDB2C4E08493E84008313000854
:1009A800C700C8014708DD004808DE00F62C4E08DD
:1009B800493E84005E08A1005D08A0000A30A2003C
:1009C8000030A3000A128A15AE230A128A11831373
:1009D8000008831203132007DD00003003180130DC
:1009E8002107DE000130C7004708CE0702304E025B
:1009F800031CFF2C002DCA2CE001080083120313EE
:100A0800A400FB30A000200889050030DC0000307D
:100A1800DB000030DA00A630D9005C085B045A0419
:100A28005904031D182D192D1A2D3E2D0130A00033
:100A38000030A1000030A2000030A3002008D90235
:100A48002108031C210F292D2A2DDA022208031C54
:100A5800220F2F2D302DDB022308031C230F352DE9
:100A6800362DDC025C085B045A045904031D3D2D35
:100A78003E2D1A2D89140030DC000030DB000030D8
:100A8800DA00A630D9005C085B045A045904031D37
:100A98004E2D4F2D502D742D0130A0000030A10097
:100AA8000030A2000030A3002008D9022108031C4E
:100AB800210F5F2D602DDA022208031C220F652DFD
:100AC800662DDB022308031C230F6B2D6C2DDC0223
:100AD8005C085B045A045904031D732D742D502DB2
:100AE8002408A000200888000030DC000030DB006B
:100AF8000030DA00A630D9005C085B045A045904B7
:100B0800031D872D882D892DAD2D0130A0000030C3
:100B1800A1000030A2000030A3002008D90221085B
:100B2800031C210F982D992DDA022208031C220F8D
:100B38009E2D9F2DDB022308031C230FA42DA52D1A
:100B4800DC025C085B045A045904031DAC2DAD2D6E
:100B5800892DFD30A000200889050030DC00003018
:100B6800DB000030DA00A630D9005C085B045A04C8
:100B78005904031DC02DC12DC22DE62D0130A00042
:100B88000030A1000030A2000030A3002008D902E4
:100B98002108031C210FD12DD22DDA022208031CB3
:100BA800220FD72DD82DDB022308031C230FDD2DA0
:100BB800DE2DDC025C085B045A045904031DE52D94
:100BC800E62DC22D080083120313A4000915003076
:100BD800DC000030DB000030DA00A630D9005C0809
:100BE8005B045A045904031DFA2DFB2DFC2D202EFD
:100BF8000130A0000030A1000030A2000030A300A6
:100C08002008D9022108031C210F0B2E0C2EDA0212
:100C18002208031C220F112E122EDB022308031CAC
:100C2800230F172E182EDC025C085B045A045904A3
:100C3800031D1F2E202EFC2D89140030DC000030EF
:100C4800DB000030DA00A630D9005C085B045A04E7
:100C58005904031D302E312E322E562E0130A0009D
:100C68000030A1000030A2000030A3002008D90203
:100C78002108031C210F412E422EDA022208031CF0
:100C8800220F472E482EDB022308031C230F4D2E6C
:100C98004E2EDC025C085B045A045904031D552ED1
:100CA800562E322E2408A000200888000030DC00D0
:100CB8000030DB000030DA00A630D9005C085B04A5
:100CC8005A045904031D692E6A2E6B2E8F2E01308B
:100CD800A0000030A1000030A2000030A3002008CE
:100CE800D9022108031C210F7A2E7B2EDA02220852
:100CF800031C220F802E812EDB022308031C230FE6
:100D0800862E872EDC025C085B045A045904031DF6
:100D18008E2E8F2E6B2EFD30A00020088905003006
:100D2800DC000030DB000030DA00A630D9005C08B7
:100D38005B045A045904031DA22EA32EA42EC82E08
:100D48000130A0000030A1000030A2000030A30054
:100D58002008D9022108031C210FB32EB42EDA0271
:100D68002208031C220FB92EBA2EDB022308031C0B
:100D7800230FBF2EC02EDC025C085B045A04590402
:100D8800031DC72EC82EA42E08000A128A15302368
:100D98000A128A11831203130617A50101300A12D9
:100DA8008A1587230A128A11123083120313A500A9
:100DB8008030A6000A128A15D5230A128A118312D6
:100DC8000313A50101300A128A1587230A128A1112
:100DD800603083120313A5008030A6000A128A151A
:100DE800D5230A128A11080083120313A1002108CF
:100DF800A000200881000800FF1B0A2F83137F181A
:100E080083170008840A0319FF0A080007308A00BC
:100E18000408840A820700342A340034233407344F
:100E280008340934043405340634013402340334F4
:100E3800203420342034203420342034203420340A
:100E480020342034203420342034203420342034FA
:100E580020342034203420342034203420342034EA
:100E680000342A342A342A342A342A342A342A34B4
:100E780047344F344F3444342A342A342A342A34F9
:100E88002A342A342A342A342A342A34003473344B
:100E9800653474342034743469346D3465342034E2
:100EA80070346C34653461347334653420342034E0
:100EB80000346D346934633472346F347734613498
:100EC80076346534503472346F346A34653463343C
:100ED80074342A34003466346F346F346434203404
:100EE800683465346134743469346E34673420345A
:100EF8006E346F34773400342A342A342A342A344E
:100F08002A34503441345534533445342A342A343D
:100F18002A342A342A34003445346E34743465341F
:100F280072342034743468346534203466346F3451
:100F38006F346434003463346C346F347334653420
:100F48002034743468346534203464346F346F3436
:100F580072340034743461346B346534203474343E
:100F680068346534203466346F346F346434003444
:100F78006F34703465346E342034743468346534B6
:100F8800203464346F346F34723400342A342A3491
:100F9800773465346C3463346F346D3465342A3493
:100FA8002A340034303430343A3430343034003475
:100FB800831203133508AA003408A9003730B60095
:100FC8003608AB000A30AC000030AD000A128A15B2
:100FD800DC260A128A11373083120313A500003069
:100FE800A6000A128A15D5230A128A11080083124C
:060FF80003138617080038
:101592008B17080007340134831203130715080060
:1015A2000A128A15F3220A128A150800FB308312E6
:1015B2000313A000200887050800BF30831203131D
:1015C200A00020088605080001300A128A110225AF
:1015D2000A128A1508007F3083120313A000200824
:1015E200860508007F3083120313A00020088B05B4
:1015F200080083120313A1002108A0002008F800AC
:10160200080083120313851A072B082B0E2B851E45
:101612000B2B0C2B082B01300F2B003008008312F0
:1016220003138619152B162B1C2B861D192B1A2B0F
:10163200162B01301D2B0030080000300A128A11CF
:10164200F8260A128A15FB3083120313A20022081D
:101652008B050A128A15C9220A128A150800F93066
:1016620083120313A5002508831603138905880135
:1016720038300A128A1102250A128A150C300A120F
:101682008A1102250A128A15080083120313AD007B
:101692002A08AC002C08A5002D080A128A158723F7
:1016A2000A128A15831203132B08A5000030031DAA
:1016B2008030A6000A128A15D5230A128A1508005C
:1016C2000130F0007008F5071E307506031D6A2B05
:1016D2006B2B862B831203136008031D712B722B55
:1016E200832B5D085E040319772B782B832B013043
:1016F200DD020030031CDE03DE023B30F000700826
:10170200E000852B0130E002F5010800831203138B
:10171200A800962B2508A6002608A900A62B2508B6
:10172200403EA6002608A900A62B2808A600A7016D
:101732002708003A03199E2BA62B2608003A031904
:101742008B2B013A0319902BA62B2908803E0A12F3
:101752008A1102250A128A15080083120313A401B2
:10176200A501201CB52BB62BBC2B2208A4070318FD
:10177200A50A2308A50701300310A20DA30DFF3E01
:10178200031DBD2B01300310A10CA00CFF3E031D55
:10179200C42B20082104031DCF2BD02BB22B2508EC
:1017A200A1002408A000080083120313A801F02B53
:1017B20028082507840026080318260AFF000A12B3
:1017C2008A1100270A128A150A128A11E7250A12BB
:1017D2008A15013083120313A7002708A8072808D7
:1017E2002507840026080318260AFF000A128A1118
:1017F20000270A128A15003A031D002C012CD92B4E
:1018020008000B1D052C062C152C780803190A2C30
:101812000B2C152C78080A128A1135200A128A1507
:10182200FB30F10071088B05831203130C1D1A2C77
:101832001B2C242C770803191F2C202C242CFB3062
:10184200F10071088C050D1C272C282C312C7608F0
:1018520003192C2C2D2C312CFE30F10071088D0532
:101862007408FF0073088A00720E8300FE0E7E0E5B
:1018720009000A128A1530230A128A1583120313E9
:10188200A50101300A128A1587230A128A1510301F
:1018920083120313A5008030A6000A128A15D523ED
:1018A2000A128A1583120313A50101300A128A153E
:1018B20087230A128A15AD3083120313A5008030E4
:1018C200A6000A128A15D5230A128A158312031357
:1018D200061A6C2C6D2C672C061E702C712C6D2C2C
:1018E2004030AA002A08870608000A128A15302307
:1018F2000A128A1583120313A50101300A128A15EE
:1019020087230A128A15113083120313A50080302F
:10191200A6000A128A15D5230A128A158312031306
:10192200A50101300A128A1587230A128A159030FE
:1019320083120313A5008030A6000A128A15D5234C
:101942000A128A1583120313061AA82CA92CA32C97
:10195200061EAC2CAD2CA92C4030AA002A08870602
:10196200013008000A128A1530230A128A158312DE
:101972000313A50101300A128A1587230A128A1558
:10198200113083120313A5008030A6000A128A15B3
:10199200D5230A128A1583120313A50101300A12F4
:1019A2008A1587230A128A15813083120313A50030
:1019B2008030A6000A128A15D5230A128A158312CC
:1019C2000313861AE52CE62CE02C861EE92CEA2C61
:1019D200E62C2030AA002A088706013008000A12E5
:1019E2008A1530230A128A1583120313A5010130C6
:1019F2000A128A1587230A128A150D3083120313DD
:101A0200A5008030A6000A128A15D5230A128A156B
:101A120083120313A501A50A01300A128A1587232E
:101A22000A128A159F3083120313A5008030A60084
:101A32000A128A15D5230A128A1583120313861AEB
:101A4200232D242D1E2D861E272D282D242D2030BA
:101A5200AA002A088706080083120313A200C030D6
:101A6200A0002008831603138105831203132208A2
:101A720084008313000803193F2D402D502D2208A6
:101A8200840000030319462D472D502D220884009F
:101A92000008A0002008831603138104622D220887
:101AA20084000008A00003300310A00DFF3E031DB8
:101AB200552D0310200D2038A10021088316031391
:101AC200810483120313220A84000008A000043058
:101AD2000310A00DFF3E031D692D0310200DA10070
:101AE20021088B040800FE3083120313A000200893
:101AF200831603138805FD3083120313A000200808
:101B0200831603138805FB3083120313A0002008F9
:101B1200831603138805F73083120313A0002008ED
:101B2200831603138805FE3083120313A0002008D6
:101B3200831603138805FD3083120313A0002008C7
:101B4200831603138805FB3083120313A0002008B9
:101B5200831603138805F73083120313A0002008AD
:101B62008316031388057F3083120313A000200815
:101B72008316031381050800831603138516861541
:101B82007F3083120313A6002608831603138605EB
:101B92000616BF3083120313A6002608831603130A
:101BA20087058616DF3083120313A60026088316E4
:101BB20003138705BF3083120313A600260883167A
:101BC20003138605831203136208A8006108A700A5
:101BD20027300A128A152D250A128A1501300A1297
:101BE2008A15FA220A128A1500300A128A11F82678
:101BF2000A128A15FB3083120313A60026088316E5
:101C0200031387050A128A1574250A128A150A1205
:101C12008A1530230A128A157F3083120313A60015
:101C220026088605BF30A60026088605080083120E
:101C32000313A601A31F1E2E1F2E262EA209A309DF
:101C4200A20A0319A30AA601A60AA11F292E2A2E57
:101C52002F2EA009A109A00A0319A10A2008210414
:101C62000319342E352E642EA501A50A432E013008
:101C72000310A00DA10DFF3E031D392E0130A4005B
:101C82002408A507A11F462E472E382E210823021D
:101C9200031D4D2E20082202031C502E512E572EBA
:101CA2002008A2022108031CA303A302013003108F
:101CB200A10CA00CFF3E031D582E0130A502031DEE
:101CC200632E642E472E26080319682E692E6E2E67
:101CD200A209A309A20A0319A30A2308A100220840
:101CE200A000080083120313A601A11F792E7A2EE9
:101CF200812EA009A109A00A0319A10AA601A60A18
:101D0200A31F842E852E8E2EA209A309A20A0319CF
:101D1200A30A0130A4002408A606A701A8012008EE
:101D220021040319952E962ECD2EA501A50AA42EC7
:101D320001300310A00DA10DFF3E031D9A2E0130AC
:101D4200A4002408A507A11FA72EA82E992E0130B2
:101D52000310A70DA80DFF3E031DA92E2108230283
:101D6200031DB52E20082202031CB82EB92EC02E48
:101D72002008A2022108031CA303A3022714013096
:101D82000310A10CA00CFF3E031DC12E0130A502C1
:101D9200031DCC2ECD2EA82E26080319D12ED22E0D
:101DA200D72EA709A809A70A0319A80A2808A1007B
:101DB2002708A00008008312031329082A04031D20
:101DC200E32EE42EEF2E3030AE002B0884002E08D6
:101DD200831380002B0A84008001652FB001B101BA
:101DE2002A08B3002908B2000130B0070318B10A6B
:101DF2000030B107300831040319002F012F1A2FC8
:101E02002D08A1002C08A0003308A3003208A2006C
:101E12000A128A1573260A128A15831203132108DD
:101E2200B3002008B20032083304031D192F1A2F01
:101E3200F52E2A08B3002908B20030082B07AE009D
:101E42002E08840083138001FF30B0070318B10A03
:101E5200FF30B1075F2F2D08A1002C08A000330826
:101E6200A3003208A2000A128A1518260A128A153D
:101E7200831203132008303EAE0030082B07AF0058
:101E82002F0884002E0883138000FF30B007031848
:101E9200B10AFF30B1072D08A1002C08A0003308B9
:101EA200A3003208A2000A128A1573260A128A15A2
:101EB200831203132108B3002008B200320833044E
:101EC200031D642F652F2C2F08000A128A15302358
:101ED2000A128A150030831203135E020A300319B4
:101EE2005D02031C752F762F892FA50100300A127F
:101EF2008A1587230A128A15831203135E08B50016
:101F02005D08B4000A128A11DC270A128A15A52F6D
:101F1200A50100300A128A1587230A128A15003099
:101F220083120313B400B5000A128A11DC270A12C5
:101F32008A15831203135E08B5005D08B4000A1205
:101F42008A11DC270A128A15023083120313C70092
:101F52004708A50000300A128A1587230A128A153B
:101F62003A300A128A11E7250A128A150A308312B8
:101F720003136002031CBE2FBF2FD82F0330C700EC
:101F82004708A50000300A128A1587230A128A150B
:101F9200831203136008C700C8014708B400480849
:101FA200B5000A128A11DC270A128A15ED2F0330B6
:101FB200C7004708A50000300A128A1587230A12B3
:101FC2008A15003083120313B400B5000A128A1175
:101FD200DC270A128A15C92F053083120313C700A2
:101FE2004708A50000300A128A1587230A128A15AB
:0E1FF20020300A128A11E7250A128A1508000B
:02400E007A3FF7
:00000001FF
